{
  "_format": "hh-sol-artifact-1",
  "contractName": "BuyMyRoom",
  "sourceName": "contracts/BuyMyRoom.sol",
  "abi": [
    {
      "inputs": [
        {
          "internalType": "contract IERC20",
          "name": "__address",
          "type": "address"
        }
      ],
      "stateMutability": "nonpayable",
      "type": "constructor"
    },
    {
      "inputs": [
        {
          "internalType": "address",
          "name": "sender",
          "type": "address"
        },
        {
          "internalType": "uint256",
          "name": "tokenId",
          "type": "uint256"
        },
        {
          "internalType": "address",
          "name": "owner",
          "type": "address"
        }
      ],
      "name": "ERC721IncorrectOwner",
      "type": "error"
    },
    {
      "inputs": [
        {
          "internalType": "address",
          "name": "operator",
          "type": "address"
        },
        {
          "internalType": "uint256",
          "name": "tokenId",
          "type": "uint256"
        }
      ],
      "name": "ERC721InsufficientApproval",
      "type": "error"
    },
    {
      "inputs": [
        {
          "internalType": "address",
          "name": "approver",
          "type": "address"
        }
      ],
      "name": "ERC721InvalidApprover",
      "type": "error"
    },
    {
      "inputs": [
        {
          "internalType": "address",
          "name": "operator",
          "type": "address"
        }
      ],
      "name": "ERC721InvalidOperator",
      "type": "error"
    },
    {
      "inputs": [
        {
          "internalType": "address",
          "name": "owner",
          "type": "address"
        }
      ],
      "name": "ERC721InvalidOwner",
      "type": "error"
    },
    {
      "inputs": [
        {
          "internalType": "address",
          "name": "receiver",
          "type": "address"
        }
      ],
      "name": "ERC721InvalidReceiver",
      "type": "error"
    },
    {
      "inputs": [
        {
          "internalType": "address",
          "name": "sender",
          "type": "address"
        }
      ],
      "name": "ERC721InvalidSender",
      "type": "error"
    },
    {
      "inputs": [
        {
          "internalType": "uint256",
          "name": "tokenId",
          "type": "uint256"
        }
      ],
      "name": "ERC721NonexistentToken",
      "type": "error"
    },
    {
      "anonymous": false,
      "inputs": [
        {
          "indexed": true,
          "internalType": "address",
          "name": "owner",
          "type": "address"
        },
        {
          "indexed": true,
          "internalType": "address",
          "name": "approved",
          "type": "address"
        },
        {
          "indexed": true,
          "internalType": "uint256",
          "name": "tokenId",
          "type": "uint256"
        }
      ],
      "name": "Approval",
      "type": "event"
    },
    {
      "anonymous": false,
      "inputs": [
        {
          "indexed": true,
          "internalType": "address",
          "name": "owner",
          "type": "address"
        },
        {
          "indexed": true,
          "internalType": "address",
          "name": "operator",
          "type": "address"
        },
        {
          "indexed": false,
          "internalType": "bool",
          "name": "approved",
          "type": "bool"
        }
      ],
      "name": "ApprovalForAll",
      "type": "event"
    },
    {
      "anonymous": false,
      "inputs": [
        {
          "indexed": false,
          "internalType": "uint256",
          "name": "tokenId",
          "type": "uint256"
        },
        {
          "indexed": false,
          "internalType": "uint256",
          "name": "price",
          "type": "uint256"
        },
        {
          "indexed": false,
          "internalType": "address",
          "name": "owner",
          "type": "address"
        }
      ],
      "name": "RoomListed",
      "type": "event"
    },
    {
      "anonymous": false,
      "inputs": [
        {
          "indexed": false,
          "internalType": "uint256",
          "name": "tokenId",
          "type": "uint256"
        },
        {
          "indexed": false,
          "internalType": "address",
          "name": "owner",
          "type": "address"
        },
        {
          "indexed": false,
          "internalType": "address",
          "name": "buyer",
          "type": "address"
        }
      ],
      "name": "RoomTransferred",
      "type": "event"
    },
    {
      "anonymous": false,
      "inputs": [
        {
          "indexed": false,
          "internalType": "uint256",
          "name": "tokenId",
          "type": "uint256"
        },
        {
          "indexed": false,
          "internalType": "address",
          "name": "owner",
          "type": "address"
        }
      ],
      "name": "RoomUnlisted",
      "type": "event"
    },
    {
      "anonymous": false,
      "inputs": [
        {
          "indexed": true,
          "internalType": "address",
          "name": "from",
          "type": "address"
        },
        {
          "indexed": true,
          "internalType": "address",
          "name": "to",
          "type": "address"
        },
        {
          "indexed": true,
          "internalType": "uint256",
          "name": "tokenId",
          "type": "uint256"
        }
      ],
      "name": "Transfer",
      "type": "event"
    },
    {
      "inputs": [
        {
          "internalType": "address",
          "name": "owner",
          "type": "address"
        }
      ],
      "name": "BuildRoom",
      "outputs": [],
      "stateMutability": "nonpayable",
      "type": "function"
    },
    {
      "inputs": [
        {
          "internalType": "uint256",
          "name": "tokenId",
          "type": "uint256"
        }
      ],
      "name": "BuyRoom",
      "outputs": [],
      "stateMutability": "nonpayable",
      "type": "function"
    },
    {
      "inputs": [
        {
          "internalType": "address",
          "name": "newBlockOwner",
          "type": "address"
        }
      ],
      "name": "ChangeBlockOwner",
      "outputs": [],
      "stateMutability": "nonpayable",
      "type": "function"
    },
    {
      "inputs": [],
      "name": "GetListedRooms",
      "outputs": [
        {
          "internalType": "uint256[]",
          "name": "",
          "type": "uint256[]"
        }
      ],
      "stateMutability": "view",
      "type": "function"
    },
    {
      "inputs": [],
      "name": "GetMyRooms",
      "outputs": [
        {
          "internalType": "uint256[]",
          "name": "",
          "type": "uint256[]"
        }
      ],
      "stateMutability": "view",
      "type": "function"
    },
    {
      "inputs": [
        {
          "internalType": "uint256",
          "name": "tokenId",
          "type": "uint256"
        },
        {
          "internalType": "uint256",
          "name": "price",
          "type": "uint256"
        }
      ],
      "name": "ListRoom",
      "outputs": [],
      "stateMutability": "nonpayable",
      "type": "function"
    },
    {
      "inputs": [
        {
          "internalType": "uint256",
          "name": "",
          "type": "uint256"
        }
      ],
      "name": "Rooms",
      "outputs": [
        {
          "internalType": "address",
          "name": "owner",
          "type": "address"
        },
        {
          "internalType": "uint256",
          "name": "onListTimestamp",
          "type": "uint256"
        },
        {
          "internalType": "uint256",
          "name": "price",
          "type": "uint256"
        },
        {
          "internalType": "bool",
          "name": "onList",
          "type": "bool"
        }
      ],
      "stateMutability": "view",
      "type": "function"
    },
    {
      "inputs": [
        {
          "internalType": "uint256",
          "name": "tokenId",
          "type": "uint256"
        }
      ],
      "name": "UnlistRoom",
      "outputs": [],
      "stateMutability": "nonpayable",
      "type": "function"
    },
    {
      "inputs": [],
      "name": "__ERC20_address",
      "outputs": [
        {
          "internalType": "contract IERC20",
          "name": "",
          "type": "address"
        }
      ],
      "stateMutability": "view",
      "type": "function"
    },
    {
      "inputs": [
        {
          "internalType": "address",
          "name": "to",
          "type": "address"
        },
        {
          "internalType": "uint256",
          "name": "tokenId",
          "type": "uint256"
        }
      ],
      "name": "approve",
      "outputs": [],
      "stateMutability": "nonpayable",
      "type": "function"
    },
    {
      "inputs": [
        {
          "internalType": "address",
          "name": "owner",
          "type": "address"
        }
      ],
      "name": "balanceOf",
      "outputs": [
        {
          "internalType": "uint256",
          "name": "",
          "type": "uint256"
        }
      ],
      "stateMutability": "view",
      "type": "function"
    },
    {
      "inputs": [],
      "name": "blockOwner",
      "outputs": [
        {
          "internalType": "address",
          "name": "",
          "type": "address"
        }
      ],
      "stateMutability": "view",
      "type": "function"
    },
    {
      "inputs": [
        {
          "internalType": "uint256",
          "name": "tokenId",
          "type": "uint256"
        }
      ],
      "name": "getApproved",
      "outputs": [
        {
          "internalType": "address",
          "name": "",
          "type": "address"
        }
      ],
      "stateMutability": "view",
      "type": "function"
    },
    {
      "inputs": [
        {
          "internalType": "address",
          "name": "owner",
          "type": "address"
        },
        {
          "internalType": "address",
          "name": "operator",
          "type": "address"
        }
      ],
      "name": "isApprovedForAll",
      "outputs": [
        {
          "internalType": "bool",
          "name": "",
          "type": "bool"
        }
      ],
      "stateMutability": "view",
      "type": "function"
    },
    {
      "inputs": [],
      "name": "name",
      "outputs": [
        {
          "internalType": "string",
          "name": "",
          "type": "string"
        }
      ],
      "stateMutability": "view",
      "type": "function"
    },
    {
      "inputs": [
        {
          "internalType": "uint256",
          "name": "tokenId",
          "type": "uint256"
        }
      ],
      "name": "ownerOf",
      "outputs": [
        {
          "internalType": "address",
          "name": "",
          "type": "address"
        }
      ],
      "stateMutability": "view",
      "type": "function"
    },
    {
      "inputs": [],
      "name": "rate",
      "outputs": [
        {
          "internalType": "uint256",
          "name": "",
          "type": "uint256"
        }
      ],
      "stateMutability": "view",
      "type": "function"
    },
    {
      "inputs": [
        {
          "internalType": "address",
          "name": "from",
          "type": "address"
        },
        {
          "internalType": "address",
          "name": "to",
          "type": "address"
        },
        {
          "internalType": "uint256",
          "name": "tokenId",
          "type": "uint256"
        }
      ],
      "name": "safeTransferFrom",
      "outputs": [],
      "stateMutability": "nonpayable",
      "type": "function"
    },
    {
      "inputs": [
        {
          "internalType": "address",
          "name": "from",
          "type": "address"
        },
        {
          "internalType": "address",
          "name": "to",
          "type": "address"
        },
        {
          "internalType": "uint256",
          "name": "tokenId",
          "type": "uint256"
        },
        {
          "internalType": "bytes",
          "name": "data",
          "type": "bytes"
        }
      ],
      "name": "safeTransferFrom",
      "outputs": [],
      "stateMutability": "nonpayable",
      "type": "function"
    },
    {
      "inputs": [
        {
          "internalType": "address",
          "name": "operator",
          "type": "address"
        },
        {
          "internalType": "bool",
          "name": "approved",
          "type": "bool"
        }
      ],
      "name": "setApprovalForAll",
      "outputs": [],
      "stateMutability": "nonpayable",
      "type": "function"
    },
    {
      "inputs": [
        {
          "internalType": "bytes4",
          "name": "interfaceId",
          "type": "bytes4"
        }
      ],
      "name": "supportsInterface",
      "outputs": [
        {
          "internalType": "bool",
          "name": "",
          "type": "bool"
        }
      ],
      "stateMutability": "view",
      "type": "function"
    },
    {
      "inputs": [],
      "name": "symbol",
      "outputs": [
        {
          "internalType": "string",
          "name": "",
          "type": "string"
        }
      ],
      "stateMutability": "view",
      "type": "function"
    },
    {
      "inputs": [
        {
          "internalType": "uint256",
          "name": "",
          "type": "uint256"
        }
      ],
      "name": "theList",
      "outputs": [
        {
          "internalType": "uint256",
          "name": "",
          "type": "uint256"
        }
      ],
      "stateMutability": "view",
      "type": "function"
    },
    {
      "inputs": [
        {
          "internalType": "uint256",
          "name": "tokenId",
          "type": "uint256"
        }
      ],
      "name": "tokenURI",
      "outputs": [
        {
          "internalType": "string",
          "name": "",
          "type": "string"
        }
      ],
      "stateMutability": "view",
      "type": "function"
    },
    {
      "inputs": [],
      "name": "total",
      "outputs": [
        {
          "internalType": "uint256",
          "name": "",
          "type": "uint256"
        }
      ],
      "stateMutability": "view",
      "type": "function"
    },
    {
      "inputs": [
        {
          "internalType": "address",
          "name": "from",
          "type": "address"
        },
        {
          "internalType": "address",
          "name": "to",
          "type": "address"
        },
        {
          "internalType": "uint256",
          "name": "tokenId",
          "type": "uint256"
        }
      ],
      "name": "transferFrom",
      "outputs": [],
      "stateMutability": "nonpayable",
      "type": "function"
    }
  ],
  "bytecode": "0x60806040526001600a556000600b553480156200001b57600080fd5b5060405162003f3338038062003f338339818101604052810190620000419190620001da565b6040518060400160405280600981526020017f4275794d79526f6f6d00000000000000000000000000000000000000000000008152506040518060400160405280600381526020017f424d5200000000000000000000000000000000000000000000000000000000008152508160009081620000be919062000486565b508060019081620000d0919062000486565b50505080600860006101000a81548173ffffffffffffffffffffffffffffffffffffffff021916908373ffffffffffffffffffffffffffffffffffffffff16021790555033600960006101000a81548173ffffffffffffffffffffffffffffffffffffffff021916908373ffffffffffffffffffffffffffffffffffffffff160217905550506200056d565b600080fd5b600073ffffffffffffffffffffffffffffffffffffffff82169050919050565b60006200018e8262000161565b9050919050565b6000620001a28262000181565b9050919050565b620001b48162000195565b8114620001c057600080fd5b50565b600081519050620001d481620001a9565b92915050565b600060208284031215620001f357620001f26200015c565b5b60006200020384828501620001c3565b91505092915050565b600081519050919050565b7f4e487b7100000000000000000000000000000000000000000000000000000000600052604160045260246000fd5b7f4e487b7100000000000000000000000000000000000000000000000000000000600052602260045260246000fd5b600060028204905060018216806200028e57607f821691505b602082108103620002a457620002a362000246565b5b50919050565b60008190508160005260206000209050919050565b60006020601f8301049050919050565b600082821b905092915050565b6000600883026200030e7fffffffffffffffffffffffffffffffffffffffffffffffffffffffffffffffff82620002cf565b6200031a8683620002cf565b95508019841693508086168417925050509392505050565b6000819050919050565b6000819050919050565b600062000367620003616200035b8462000332565b6200033c565b62000332565b9050919050565b6000819050919050565b620003838362000346565b6200039b62000392826200036e565b848454620002dc565b825550505050565b600090565b620003b2620003a3565b620003bf81848462000378565b505050565b5b81811015620003e757620003db600082620003a8565b600181019050620003c5565b5050565b601f82111562000436576200040081620002aa565b6200040b84620002bf565b810160208510156200041b578190505b620004336200042a85620002bf565b830182620003c4565b50505b505050565b600082821c905092915050565b60006200045b600019846008026200043b565b1980831691505092915050565b600062000476838362000448565b9150826002028217905092915050565b62000491826200020c565b67ffffffffffffffff811115620004ad57620004ac62000217565b5b620004b9825462000275565b620004c6828285620003eb565b600060209050601f831160018114620004fe5760008415620004e9578287015190505b620004f5858262000468565b86555062000565565b601f1984166200050e86620002aa565b60005b82811015620005385784890151825560018201915060208501945060208101905062000511565b8683101562000558578489015162000554601f89168262000448565b8355505b6001600288020188555050505b505050505050565b6139b6806200057d6000396000f3fe608060405234801561001057600080fd5b506004361061018e5760003560e01c806370a08231116100de578063b88d4fde11610097578063e70c56c811610071578063e70c56c814610481578063e985e9c51461049f578063f673e2c7146104cf578063fa87007a146105025761018e565b8063b88d4fde14610419578063c87b56dd14610435578063e0fcf0bf146104655761018e565b806370a08231146103595780637a06f67e146103895780638dd6fea8146103a557806395d89b41146103c3578063a07f1715146103e1578063a22cb465146103fd5761018e565b806324693e401161014b57806331133b881161012557806331133b88146102d157806342842e0e146102ef57806343f07aeb1461030b5780636352211e146103295761018e565b806324693e40146102795780632c4e722e146102955780632ddbd13a146102b35761018e565b806301ffc9a71461019357806306fdde03146101c3578063081812fc146101e1578063095ea7b31461021157806316c1e9a51461022d57806323b872dd1461025d575b600080fd5b6101ad60048036038101906101a891906127a1565b61051e565b6040516101ba91906127e9565b60405180910390f35b6101cb610600565b6040516101d89190612894565b60405180910390f35b6101fb60048036038101906101f691906128ec565b610692565b604051610208919061295a565b60405180910390f35b61022b600480360381019061022691906129a1565b6106ae565b005b610247600480360381019061024291906128ec565b6106c4565b60405161025491906129f0565b60405180910390f35b61027760048036038101906102729190612a0b565b6106e8565b005b610293600480360381019061028e9190612a5e565b6107ea565b005b61029d6108be565b6040516102aa91906129f0565b60405180910390f35b6102bb6108c4565b6040516102c891906129f0565b60405180910390f35b6102d96108ca565b6040516102e6919061295a565b60405180910390f35b61030960048036038101906103049190612a0b565b6108f0565b005b610313610910565b6040516103209190612aea565b60405180910390f35b610343600480360381019061033e91906128ec565b610936565b604051610350919061295a565b60405180910390f35b610373600480360381019061036e9190612a5e565b610948565b60405161038091906129f0565b60405180910390f35b6103a3600480360381019061039e9190612a5e565b610a02565b005b6103ad610b88565b6040516103ba9190612bc3565b60405180910390f35b6103cb610be0565b6040516103d89190612894565b60405180910390f35b6103fb60048036038101906103f691906128ec565b610c72565b005b61041760048036038101906104129190612c11565b6110bc565b005b610433600480360381019061042e9190612d86565b6110d2565b005b61044f600480360381019061044a91906128ec565b6110ef565b60405161045c9190612894565b60405180910390f35b61047f600480360381019061047a91906128ec565b611158565b005b610489611307565b6040516104969190612bc3565b60405180910390f35b6104b960048036038101906104b49190612e09565b611422565b6040516104c691906127e9565b60405180910390f35b6104e960048036038101906104e491906128ec565b6114b6565b6040516104f99493929190612e49565b60405180910390f35b61051c60048036038101906105179190612e8e565b611513565b005b60007f80ac58cd000000000000000000000000000000000000000000000000000000007bffffffffffffffffffffffffffffffffffffffffffffffffffffffff1916827bffffffffffffffffffffffffffffffffffffffffffffffffffffffff191614806105e957507f5b5e139f000000000000000000000000000000000000000000000000000000007bffffffffffffffffffffffffffffffffffffffffffffffffffffffff1916827bffffffffffffffffffffffffffffffffffffffffffffffffffffffff1916145b806105f957506105f88261170b565b5b9050919050565b60606000805461060f90612efd565b80601f016020809104026020016040519081016040528092919081815260200182805461063b90612efd565b80156106885780601f1061065d57610100808354040283529160200191610688565b820191906000526020600020905b81548152906001019060200180831161066b57829003601f168201915b5050505050905090565b600061069d82611775565b506106a7826117fd565b9050919050565b6106c082826106bb61183a565b611842565b5050565b600781815481106106d457600080fd5b906000526020600020016000915090505481565b600073ffffffffffffffffffffffffffffffffffffffff168273ffffffffffffffffffffffffffffffffffffffff160361075a5760006040517f64a0ae92000000000000000000000000000000000000000000000000000000008152600401610751919061295a565b60405180910390fd5b600061076e838361076961183a565b611854565b90508373ffffffffffffffffffffffffffffffffffffffff168173ffffffffffffffffffffffffffffffffffffffff16146107e4578382826040517f64283d7b0000000000000000000000000000000000000000000000000000000081526004016107db93929190612f2e565b60405180910390fd5b50505050565b3373ffffffffffffffffffffffffffffffffffffffff16600960009054906101000a900473ffffffffffffffffffffffffffffffffffffffff1673ffffffffffffffffffffffffffffffffffffffff161461087a576040517f08c379a000000000000000000000000000000000000000000000000000000000815260040161087190612fd7565b60405180910390fd5b80600960006101000a81548173ffffffffffffffffffffffffffffffffffffffff021916908373ffffffffffffffffffffffffffffffffffffffff16021790555050565b600a5481565b600b5481565b600960009054906101000a900473ffffffffffffffffffffffffffffffffffffffff1681565b61090b838383604051806020016040528060008152506110d2565b505050565b600860009054906101000a900473ffffffffffffffffffffffffffffffffffffffff1681565b600061094182611775565b9050919050565b60008073ffffffffffffffffffffffffffffffffffffffff168273ffffffffffffffffffffffffffffffffffffffff16036109bb5760006040517f89c62b640000000000000000000000000000000000000000000000000000000081526004016109b2919061295a565b60405180910390fd5b600360008373ffffffffffffffffffffffffffffffffffffffff1673ffffffffffffffffffffffffffffffffffffffff168152602001908152602001600020549050919050565b600960009054906101000a900473ffffffffffffffffffffffffffffffffffffffff1673ffffffffffffffffffffffffffffffffffffffff163373ffffffffffffffffffffffffffffffffffffffff1614610a92576040517f08c379a0000000000000000000000000000000000000000000000000000000008152600401610a8990613069565b60405180910390fd5b60405180608001604052808273ffffffffffffffffffffffffffffffffffffffff16815260200160008152602001600081526020016000151581525060066000600b54815260200190815260200160002060008201518160000160006101000a81548173ffffffffffffffffffffffffffffffffffffffff021916908373ffffffffffffffffffffffffffffffffffffffff160217905550602082015181600101556040820151816002015560608201518160030160006101000a81548160ff021916908315150217905550905050610b6d81600b54611a6e565b600b6000815480929190610b80906130b8565b919050555050565b60606007805480602002602001604051908101604052809291908181526020018280548015610bd657602002820191906000526020600020905b815481526020019060010190808311610bc2575b5050505050905090565b606060018054610bef90612efd565b80601f0160208091040260200160405190810160405280929190818152602001828054610c1b90612efd565b8015610c685780601f10610c3d57610100808354040283529160200191610c68565b820191906000526020600020905b815481529060010190602001808311610c4b57829003601f168201915b5050505050905090565b6000600660008381526020019081526020016000206040518060800160405290816000820160009054906101000a900473ffffffffffffffffffffffffffffffffffffffff1673ffffffffffffffffffffffffffffffffffffffff1673ffffffffffffffffffffffffffffffffffffffff16815260200160018201548152602001600282015481526020016003820160009054906101000a900460ff1615151515815250509050600115158160600151151514610d64576040517f08c379a0000000000000000000000000000000000000000000000000000000008152600401610d5b9061314c565b60405180910390fd5b3373ffffffffffffffffffffffffffffffffffffffff16816000015173ffffffffffffffffffffffffffffffffffffffff1603610dd6576040517f08c379a0000000000000000000000000000000000000000000000000000000008152600401610dcd906131de565b60405180910390fd5b6000610de182611a8c565b9050600860009054906101000a900473ffffffffffffffffffffffffffffffffffffffff1673ffffffffffffffffffffffffffffffffffffffff166323b872dd338460000151848660400151610e3791906131fe565b6040518463ffffffff1660e01b8152600401610e5593929190613232565b6020604051808303816000875af1158015610e74573d6000803e3d6000fd5b505050506040513d601f19601f82011682018060405250810190610e98919061327e565b610ed7576040517f08c379a0000000000000000000000000000000000000000000000000000000008152600401610ece906132f7565b60405180910390fd5b600860009054906101000a900473ffffffffffffffffffffffffffffffffffffffff1673ffffffffffffffffffffffffffffffffffffffff166323b872dd33600960009054906101000a900473ffffffffffffffffffffffffffffffffffffffff16846040518463ffffffff1660e01b8152600401610f5893929190613232565b6020604051808303816000875af1158015610f77573d6000803e3d6000fd5b505050506040513d601f19601f82011682018060405250810190610f9b919061327e565b610fda576040517f08c379a0000000000000000000000000000000000000000000000000000000008152600401610fd190613363565b60405180910390fd5b610fe982600001513385611b08565b336006600085815260200190815260200160002060000160006101000a81548173ffffffffffffffffffffffffffffffffffffffff021916908373ffffffffffffffffffffffffffffffffffffffff16021790555060006006600085815260200190815260200160002060030160006101000a81548160ff021916908315150217905550611078600784611c75565b7f463c09e8767ac28c205b4863966a0b1ee84be3b129ece831e067a1674066a9c3838360000151336040516110af93929190613383565b60405180910390a1505050565b6110ce6110c761183a565b8383611d3b565b5050565b6110dd8484846106e8565b6110e984848484611eaa565b50505050565b60606110fa82611775565b506000611105612061565b905060008151116111255760405180602001604052806000815250611150565b8061112f84612078565b6040516020016111409291906133f6565b6040516020818303038152906040525b915050919050565b61116181610936565b73ffffffffffffffffffffffffffffffffffffffff163373ffffffffffffffffffffffffffffffffffffffff16146111ce576040517f08c379a00000000000000000000000000000000000000000000000000000000081526004016111c59061348c565b60405180910390fd5b600081101580156111e05750600b5481105b61121f576040517f08c379a0000000000000000000000000000000000000000000000000000000008152600401611216906134f8565b60405180910390fd5b600115156006600083815260200190815260200160002060030160009054906101000a900460ff16151514611289576040517f08c379a00000000000000000000000000000000000000000000000000000000081526004016112809061358a565b60405180910390fd5b60006006600083815260200190815260200160002060030160006101000a81548160ff0219169083151502179055506112c3600782611c75565b7f6b694a5d43cb1a8c907566b2cb1ea9965947c83f2f5bda51eddc50d2cfcf99d4816112ee83610936565b6040516112fc9291906135aa565b60405180910390a150565b6060600061131433610948565b67ffffffffffffffff81111561132d5761132c612c5b565b5b60405190808252806020026020018201604052801561135b5781602001602082028036833780820191505090505b509050600080600190505b600b54811015611419573373ffffffffffffffffffffffffffffffffffffffff166006600083815260200190815260200160002060000160009054906101000a900473ffffffffffffffffffffffffffffffffffffffff1673ffffffffffffffffffffffffffffffffffffffff160361140657808383806113e6906130b8565b9450815181106113f9576113f86135d3565b5b6020026020010181815250505b8080611411906130b8565b915050611366565b50819250505090565b6000600560008473ffffffffffffffffffffffffffffffffffffffff1673ffffffffffffffffffffffffffffffffffffffff16815260200190815260200160002060008373ffffffffffffffffffffffffffffffffffffffff1673ffffffffffffffffffffffffffffffffffffffff16815260200190815260200160002060009054906101000a900460ff16905092915050565b60066020528060005260406000206000915090508060000160009054906101000a900473ffffffffffffffffffffffffffffffffffffffff16908060010154908060020154908060030160009054906101000a900460ff16905084565b61151c82610936565b73ffffffffffffffffffffffffffffffffffffffff163373ffffffffffffffffffffffffffffffffffffffff1614611589576040517f08c379a00000000000000000000000000000000000000000000000000000000081526004016115809061364e565b60405180910390fd5b600081116115cc576040517f08c379a00000000000000000000000000000000000000000000000000000000081526004016115c3906136ba565b60405180910390fd5b600015156006600084815260200190815260200160002060030160009054906101000a900460ff16151514611636576040517f08c379a000000000000000000000000000000000000000000000000000000000815260040161162d9061374c565b60405180910390fd5b80600660008481526020019081526020016000206002018190555042600660008481526020019081526020016000206001018190555060016006600084815260200190815260200160002060030160006101000a81548160ff02191690831515021790555060078290806001815401808255809150506001900390600052602060002001600090919091909150557fb71618b0b7e52bfdf2a327fe4bd128c9826c05049b006de7ebc114eb1fc5ed3682826116f085610936565b6040516116ff9392919061376c565b60405180910390a15050565b60007f01ffc9a7000000000000000000000000000000000000000000000000000000007bffffffffffffffffffffffffffffffffffffffffffffffffffffffff1916827bffffffffffffffffffffffffffffffffffffffffffffffffffffffff1916149050919050565b60008061178183612146565b9050600073ffffffffffffffffffffffffffffffffffffffff168173ffffffffffffffffffffffffffffffffffffffff16036117f457826040517f7e2732890000000000000000000000000000000000000000000000000000000081526004016117eb91906129f0565b60405180910390fd5b80915050919050565b60006004600083815260200190815260200160002060009054906101000a900473ffffffffffffffffffffffffffffffffffffffff169050919050565b600033905090565b61184f8383836001612183565b505050565b60008061186084612146565b9050600073ffffffffffffffffffffffffffffffffffffffff168373ffffffffffffffffffffffffffffffffffffffff16146118a2576118a1818486612348565b5b600073ffffffffffffffffffffffffffffffffffffffff168173ffffffffffffffffffffffffffffffffffffffff1614611933576118e4600085600080612183565b6001600360008373ffffffffffffffffffffffffffffffffffffffff1673ffffffffffffffffffffffffffffffffffffffff168152602001908152602001600020600082825403925050819055505b600073ffffffffffffffffffffffffffffffffffffffff168573ffffffffffffffffffffffffffffffffffffffff16146119b6576001600360008773ffffffffffffffffffffffffffffffffffffffff1673ffffffffffffffffffffffffffffffffffffffff168152602001908152602001600020600082825401925050819055505b846002600086815260200190815260200160002060006101000a81548173ffffffffffffffffffffffffffffffffffffffff021916908373ffffffffffffffffffffffffffffffffffffffff160217905550838573ffffffffffffffffffffffffffffffffffffffff168273ffffffffffffffffffffffffffffffffffffffff167fddf252ad1be2c89b69c2b068fc378daa952ba7f163c4a11628f55a4df523b3ef60405160405180910390a4809150509392505050565b611a8882826040518060200160405280600081525061240c565b5050565b600080610e108360400151600a54856020015142611aaa91906131fe565b611ab491906137a3565b611abe91906137a3565b611ac89190613814565b9050600060028460400151611add9190613814565b905060006001905081831115611af1578192505b80831015611afd578092505b829350505050919050565b600073ffffffffffffffffffffffffffffffffffffffff168273ffffffffffffffffffffffffffffffffffffffff1603611b7a5760006040517f64a0ae92000000000000000000000000000000000000000000000000000000008152600401611b71919061295a565b60405180910390fd5b6000611b8883836000611854565b9050600073ffffffffffffffffffffffffffffffffffffffff168173ffffffffffffffffffffffffffffffffffffffff1603611bfb57816040517f7e273289000000000000000000000000000000000000000000000000000000008152600401611bf291906129f0565b60405180910390fd5b8373ffffffffffffffffffffffffffffffffffffffff168173ffffffffffffffffffffffffffffffffffffffff1614611c6f578382826040517f64283d7b000000000000000000000000000000000000000000000000000000008152600401611c6693929190612f2e565b60405180910390fd5b50505050565b60005b8280549050811015611d365781838281548110611c9857611c976135d3565b5b906000526020600020015403611d23578260018480549050611cba91906131fe565b81548110611ccb57611cca6135d3565b5b9060005260206000200154838281548110611ce957611ce86135d3565b5b906000526020600020018190555082805480611d0857611d07613845565b5b60019003818190600052602060002001600090559055611d36565b8080611d2e906130b8565b915050611c78565b505050565b600073ffffffffffffffffffffffffffffffffffffffff168273ffffffffffffffffffffffffffffffffffffffff1603611dac57816040517f5b08ba18000000000000000000000000000000000000000000000000000000008152600401611da3919061295a565b60405180910390fd5b80600560008573ffffffffffffffffffffffffffffffffffffffff1673ffffffffffffffffffffffffffffffffffffffff16815260200190815260200160002060008473ffffffffffffffffffffffffffffffffffffffff1673ffffffffffffffffffffffffffffffffffffffff16815260200190815260200160002060006101000a81548160ff0219169083151502179055508173ffffffffffffffffffffffffffffffffffffffff168373ffffffffffffffffffffffffffffffffffffffff167f17307eab39ab6107e8899845ad3d59bd9653f200f220920489ca2b5937696c3183604051611e9d91906127e9565b60405180910390a3505050565b60008373ffffffffffffffffffffffffffffffffffffffff163b111561205b578273ffffffffffffffffffffffffffffffffffffffff1663150b7a02611eee61183a565b8685856040518563ffffffff1660e01b8152600401611f1094939291906138c9565b6020604051808303816000875af1925050508015611f4c57506040513d601f19601f82011682018060405250810190611f49919061392a565b60015b611fd0573d8060008114611f7c576040519150601f19603f3d011682016040523d82523d6000602084013e611f81565b606091505b506000815103611fc857836040517f64a0ae92000000000000000000000000000000000000000000000000000000008152600401611fbf919061295a565b60405180910390fd5b805181602001fd5b63150b7a0260e01b7bffffffffffffffffffffffffffffffffffffffffffffffffffffffff1916817bffffffffffffffffffffffffffffffffffffffffffffffffffffffff19161461205957836040517f64a0ae92000000000000000000000000000000000000000000000000000000008152600401612050919061295a565b60405180910390fd5b505b50505050565b606060405180602001604052806000815250905090565b60606000600161208784612428565b01905060008167ffffffffffffffff8111156120a6576120a5612c5b565b5b6040519080825280601f01601f1916602001820160405280156120d85781602001600182028036833780820191505090505b509050600082602001820190505b60011561213b578080600190039150507f3031323334353637383961626364656600000000000000000000000000000000600a86061a8153600a858161212f5761212e6137e5565b5b049450600085036120e6575b819350505050919050565b60006002600083815260200190815260200160002060009054906101000a900473ffffffffffffffffffffffffffffffffffffffff169050919050565b80806121bc5750600073ffffffffffffffffffffffffffffffffffffffff168273ffffffffffffffffffffffffffffffffffffffff1614155b156122f05760006121cc84611775565b9050600073ffffffffffffffffffffffffffffffffffffffff168373ffffffffffffffffffffffffffffffffffffffff161415801561223757508273ffffffffffffffffffffffffffffffffffffffff168173ffffffffffffffffffffffffffffffffffffffff1614155b801561224a57506122488184611422565b155b1561228c57826040517fa9fbf51f000000000000000000000000000000000000000000000000000000008152600401612283919061295a565b60405180910390fd5b81156122ee57838573ffffffffffffffffffffffffffffffffffffffff168273ffffffffffffffffffffffffffffffffffffffff167f8c5be1e5ebec7d5bd14f71427d1e84f3dd0314c0f7b2291e5b200ac8c7c3b92560405160405180910390a45b505b836004600085815260200190815260200160002060006101000a81548173ffffffffffffffffffffffffffffffffffffffff021916908373ffffffffffffffffffffffffffffffffffffffff16021790555050505050565b61235383838361257b565b61240757600073ffffffffffffffffffffffffffffffffffffffff168373ffffffffffffffffffffffffffffffffffffffff16036123c857806040517f7e2732890000000000000000000000000000000000000000000000000000000081526004016123bf91906129f0565b60405180910390fd5b81816040517f177e802f0000000000000000000000000000000000000000000000000000000081526004016123fe929190613957565b60405180910390fd5b505050565b612416838361263c565b6124236000848484611eaa565b505050565b600080600090507a184f03e93ff9f4daa797ed6e38ed64bf6a1f0100000000000000008310612486577a184f03e93ff9f4daa797ed6e38ed64bf6a1f010000000000000000838161247c5761247b6137e5565b5b0492506040810190505b6d04ee2d6d415b85acef810000000083106124c3576d04ee2d6d415b85acef810000000083816124b9576124b86137e5565b5b0492506020810190505b662386f26fc1000083106124f257662386f26fc1000083816124e8576124e76137e5565b5b0492506010810190505b6305f5e100831061251b576305f5e1008381612511576125106137e5565b5b0492506008810190505b6127108310612540576127108381612536576125356137e5565b5b0492506004810190505b606483106125635760648381612559576125586137e5565b5b0492506002810190505b600a8310612572576001810190505b80915050919050565b60008073ffffffffffffffffffffffffffffffffffffffff168373ffffffffffffffffffffffffffffffffffffffff161415801561263357508273ffffffffffffffffffffffffffffffffffffffff168473ffffffffffffffffffffffffffffffffffffffff1614806125f457506125f38484611422565b5b8061263257508273ffffffffffffffffffffffffffffffffffffffff1661261a836117fd565b73ffffffffffffffffffffffffffffffffffffffff16145b5b90509392505050565b600073ffffffffffffffffffffffffffffffffffffffff168273ffffffffffffffffffffffffffffffffffffffff16036126ae5760006040517f64a0ae920000000000000000000000000000000000000000000000000000000081526004016126a5919061295a565b60405180910390fd5b60006126bc83836000611854565b9050600073ffffffffffffffffffffffffffffffffffffffff168173ffffffffffffffffffffffffffffffffffffffff16146127305760006040517f73c6ac6e000000000000000000000000000000000000000000000000000000008152600401612727919061295a565b60405180910390fd5b505050565b6000604051905090565b600080fd5b600080fd5b60007fffffffff0000000000000000000000000000000000000000000000000000000082169050919050565b61277e81612749565b811461278957600080fd5b50565b60008135905061279b81612775565b92915050565b6000602082840312156127b7576127b661273f565b5b60006127c58482850161278c565b91505092915050565b60008115159050919050565b6127e3816127ce565b82525050565b60006020820190506127fe60008301846127da565b92915050565b600081519050919050565b600082825260208201905092915050565b60005b8381101561283e578082015181840152602081019050612823565b60008484015250505050565b6000601f19601f8301169050919050565b600061286682612804565b612870818561280f565b9350612880818560208601612820565b6128898161284a565b840191505092915050565b600060208201905081810360008301526128ae818461285b565b905092915050565b6000819050919050565b6128c9816128b6565b81146128d457600080fd5b50565b6000813590506128e6816128c0565b92915050565b6000602082840312156129025761290161273f565b5b6000612910848285016128d7565b91505092915050565b600073ffffffffffffffffffffffffffffffffffffffff82169050919050565b600061294482612919565b9050919050565b61295481612939565b82525050565b600060208201905061296f600083018461294b565b92915050565b61297e81612939565b811461298957600080fd5b50565b60008135905061299b81612975565b92915050565b600080604083850312156129b8576129b761273f565b5b60006129c68582860161298c565b92505060206129d7858286016128d7565b9150509250929050565b6129ea816128b6565b82525050565b6000602082019050612a0560008301846129e1565b92915050565b600080600060608486031215612a2457612a2361273f565b5b6000612a328682870161298c565b9350506020612a438682870161298c565b9250506040612a54868287016128d7565b9150509250925092565b600060208284031215612a7457612a7361273f565b5b6000612a828482850161298c565b91505092915050565b6000819050919050565b6000612ab0612aab612aa684612919565b612a8b565b612919565b9050919050565b6000612ac282612a95565b9050919050565b6000612ad482612ab7565b9050919050565b612ae481612ac9565b82525050565b6000602082019050612aff6000830184612adb565b92915050565b600081519050919050565b600082825260208201905092915050565b6000819050602082019050919050565b612b3a816128b6565b82525050565b6000612b4c8383612b31565b60208301905092915050565b6000602082019050919050565b6000612b7082612b05565b612b7a8185612b10565b9350612b8583612b21565b8060005b83811015612bb6578151612b9d8882612b40565b9750612ba883612b58565b925050600181019050612b89565b5085935050505092915050565b60006020820190508181036000830152612bdd8184612b65565b905092915050565b612bee816127ce565b8114612bf957600080fd5b50565b600081359050612c0b81612be5565b92915050565b60008060408385031215612c2857612c2761273f565b5b6000612c368582860161298c565b9250506020612c4785828601612bfc565b9150509250929050565b600080fd5b600080fd5b7f4e487b7100000000000000000000000000000000000000000000000000000000600052604160045260246000fd5b612c938261284a565b810181811067ffffffffffffffff82111715612cb257612cb1612c5b565b5b80604052505050565b6000612cc5612735565b9050612cd18282612c8a565b919050565b600067ffffffffffffffff821115612cf157612cf0612c5b565b5b612cfa8261284a565b9050602081019050919050565b82818337600083830152505050565b6000612d29612d2484612cd6565b612cbb565b905082815260208101848484011115612d4557612d44612c56565b5b612d50848285612d07565b509392505050565b600082601f830112612d6d57612d6c612c51565b5b8135612d7d848260208601612d16565b91505092915050565b60008060008060808587031215612da057612d9f61273f565b5b6000612dae8782880161298c565b9450506020612dbf8782880161298c565b9350506040612dd0878288016128d7565b925050606085013567ffffffffffffffff811115612df157612df0612744565b5b612dfd87828801612d58565b91505092959194509250565b60008060408385031215612e2057612e1f61273f565b5b6000612e2e8582860161298c565b9250506020612e3f8582860161298c565b9150509250929050565b6000608082019050612e5e600083018761294b565b612e6b60208301866129e1565b612e7860408301856129e1565b612e8560608301846127da565b95945050505050565b60008060408385031215612ea557612ea461273f565b5b6000612eb3858286016128d7565b9250506020612ec4858286016128d7565b9150509250929050565b7f4e487b7100000000000000000000000000000000000000000000000000000000600052602260045260246000fd5b60006002820490506001821680612f1557607f821691505b602082108103612f2857612f27612ece565b5b50919050565b6000606082019050612f43600083018661294b565b612f5060208301856129e1565b612f5d604083018461294b565b949350505050565b7f6368616e67696e6720626c6f636b206f776e6572206e6565647320746865207560008201527f73657220697320746865206f6c64206f776e6572000000000000000000000000602082015250565b6000612fc160348361280f565b9150612fcc82612f65565b604082019050919050565b60006020820190508181036000830152612ff081612fb4565b9050919050565b7f6275696c64696e67206e65656473207573657220617320626c6f636b206f776e60008201527f6572000000000000000000000000000000000000000000000000000000000000602082015250565b600061305360228361280f565b915061305e82612ff7565b604082019050919050565b6000602082019050818103600083015261308281613046565b9050919050565b7f4e487b7100000000000000000000000000000000000000000000000000000000600052601160045260246000fd5b60006130c3826128b6565b91507fffffffffffffffffffffffffffffffffffffffffffffffffffffffffffffffff82036130f5576130f4613089565b5b600182019050919050565b7f627579696e67206e6565647320526f6f6d206f6e20746865206c697374000000600082015250565b6000613136601d8361280f565b915061314182613100565b602082019050919050565b6000602082019050818103600083015261316581613129565b9050919050565b7f627579696e67206e65656473206f746865727320746f206275792c206e6f742060008201527f746865206f776e65720000000000000000000000000000000000000000000000602082015250565b60006131c860298361280f565b91506131d38261316c565b604082019050919050565b600060208201905081810360008301526131f7816131bb565b9050919050565b6000613209826128b6565b9150613214836128b6565b925082820390508181111561322c5761322b613089565b5b92915050565b6000606082019050613247600083018661294b565b613254602083018561294b565b61326160408301846129e1565b949350505050565b60008151905061327881612be5565b92915050565b6000602082840312156132945761329361273f565b5b60006132a284828501613269565b91505092915050565b7f3100000000000000000000000000000000000000000000000000000000000000600082015250565b60006132e160018361280f565b91506132ec826132ab565b602082019050919050565b60006020820190508181036000830152613310816132d4565b9050919050565b7f3200000000000000000000000000000000000000000000000000000000000000600082015250565b600061334d60018361280f565b915061335882613317565b602082019050919050565b6000602082019050818103600083015261337c81613340565b9050919050565b600060608201905061339860008301866129e1565b6133a5602083018561294b565b6133b2604083018461294b565b949350505050565b600081905092915050565b60006133d082612804565b6133da81856133ba565b93506133ea818560208601612820565b80840191505092915050565b600061340282856133c5565b915061340e82846133c5565b91508190509392505050565b7f756e6c697374696e67206e65656473207573657220617320526f6f6d206f776e60008201527f6572000000000000000000000000000000000000000000000000000000000000602082015250565b600061347660228361280f565b91506134818261341a565b604082019050919050565b600060208201905081810360008301526134a581613469565b9050919050565b7f63616e6e6f742066696e64207468697320526f6f6d0000000000000000000000600082015250565b60006134e260158361280f565b91506134ed826134ac565b602082019050919050565b60006020820190508181036000830152613511816134d5565b9050919050565b7f756e6c697374696e67206e656564732074686520526f6f6d206f6e207468652060008201527f6c69737400000000000000000000000000000000000000000000000000000000602082015250565b600061357460248361280f565b915061357f82613518565b604082019050919050565b600060208201905081810360008301526135a381613567565b9050919050565b60006040820190506135bf60008301856129e1565b6135cc602083018461294b565b9392505050565b7f4e487b7100000000000000000000000000000000000000000000000000000000600052603260045260246000fd5b7f6c697374696e67206e65656473207573657220617320526f6f6d206f776e6572600082015250565b600061363860208361280f565b915061364382613602565b602082019050919050565b600060208201905081810360008301526136678161362b565b9050919050565b7f70726963652073686f756c642067726561746572207468616e20300000000000600082015250565b60006136a4601b8361280f565b91506136af8261366e565b602082019050919050565b600060208201905081810360008301526136d381613697565b9050919050565b7f6c697374696e67206e656564732074686520526f6f6d206e6f74206f6e20746860008201527f65206c6973740000000000000000000000000000000000000000000000000000602082015250565b600061373660268361280f565b9150613741826136da565b604082019050919050565b6000602082019050818103600083015261376581613729565b9050919050565b600060608201905061378160008301866129e1565b61378e60208301856129e1565b61379b604083018461294b565b949350505050565b60006137ae826128b6565b91506137b9836128b6565b92508282026137c7816128b6565b915082820484148315176137de576137dd613089565b5b5092915050565b7f4e487b7100000000000000000000000000000000000000000000000000000000600052601260045260246000fd5b600061381f826128b6565b915061382a836128b6565b92508261383a576138396137e5565b5b828204905092915050565b7f4e487b7100000000000000000000000000000000000000000000000000000000600052603160045260246000fd5b600081519050919050565b600082825260208201905092915050565b600061389b82613874565b6138a5818561387f565b93506138b5818560208601612820565b6138be8161284a565b840191505092915050565b60006080820190506138de600083018761294b565b6138eb602083018661294b565b6138f860408301856129e1565b818103606083015261390a8184613890565b905095945050505050565b60008151905061392481612775565b92915050565b6000602082840312156139405761393f61273f565b5b600061394e84828501613915565b91505092915050565b600060408201905061396c600083018561294b565b61397960208301846129e1565b939250505056fea2646970667358221220bc8143a2755979609c5e79c7175d2a529c310b3b1654999c0789f272d535580964736f6c63430008140033",
  "linkReferences": {},
  "deployedLinkReferences": {}
}