{
  "_format": "hh-sol-artifact-1",
  "contractName": "SimpleAMM",
  "sourceName": "contracts/SimpleAMM.sol",
  "abi": [
    {
      "inputs": [],
      "stateMutability": "nonpayable",
      "type": "constructor"
    },
    {
      "inputs": [
        {
          "internalType": "address",
          "name": "spender",
          "type": "address"
        },
        {
          "internalType": "uint256",
          "name": "allowance",
          "type": "uint256"
        },
        {
          "internalType": "uint256",
          "name": "needed",
          "type": "uint256"
        }
      ],
      "name": "ERC20InsufficientAllowance",
      "type": "error"
    },
    {
      "inputs": [
        {
          "internalType": "address",
          "name": "sender",
          "type": "address"
        },
        {
          "internalType": "uint256",
          "name": "balance",
          "type": "uint256"
        },
        {
          "internalType": "uint256",
          "name": "needed",
          "type": "uint256"
        }
      ],
      "name": "ERC20InsufficientBalance",
      "type": "error"
    },
    {
      "inputs": [
        {
          "internalType": "address",
          "name": "approver",
          "type": "address"
        }
      ],
      "name": "ERC20InvalidApprover",
      "type": "error"
    },
    {
      "inputs": [
        {
          "internalType": "address",
          "name": "receiver",
          "type": "address"
        }
      ],
      "name": "ERC20InvalidReceiver",
      "type": "error"
    },
    {
      "inputs": [
        {
          "internalType": "address",
          "name": "sender",
          "type": "address"
        }
      ],
      "name": "ERC20InvalidSender",
      "type": "error"
    },
    {
      "inputs": [
        {
          "internalType": "address",
          "name": "spender",
          "type": "address"
        }
      ],
      "name": "ERC20InvalidSpender",
      "type": "error"
    },
    {
      "anonymous": false,
      "inputs": [
        {
          "indexed": true,
          "internalType": "address",
          "name": "owner",
          "type": "address"
        },
        {
          "indexed": true,
          "internalType": "address",
          "name": "spender",
          "type": "address"
        },
        {
          "indexed": false,
          "internalType": "uint256",
          "name": "value",
          "type": "uint256"
        }
      ],
      "name": "Approval",
      "type": "event"
    },
    {
      "anonymous": false,
      "inputs": [
        {
          "indexed": true,
          "internalType": "address",
          "name": "from",
          "type": "address"
        },
        {
          "indexed": true,
          "internalType": "address",
          "name": "to",
          "type": "address"
        },
        {
          "indexed": false,
          "internalType": "uint256",
          "name": "value",
          "type": "uint256"
        }
      ],
      "name": "Transfer",
      "type": "event"
    },
    {
      "inputs": [
        {
          "internalType": "address",
          "name": "owner",
          "type": "address"
        },
        {
          "internalType": "address",
          "name": "spender",
          "type": "address"
        }
      ],
      "name": "allowance",
      "outputs": [
        {
          "internalType": "uint256",
          "name": "",
          "type": "uint256"
        }
      ],
      "stateMutability": "view",
      "type": "function"
    },
    {
      "inputs": [
        {
          "internalType": "address",
          "name": "spender",
          "type": "address"
        },
        {
          "internalType": "uint256",
          "name": "value",
          "type": "uint256"
        }
      ],
      "name": "approve",
      "outputs": [
        {
          "internalType": "bool",
          "name": "",
          "type": "bool"
        }
      ],
      "stateMutability": "nonpayable",
      "type": "function"
    },
    {
      "inputs": [
        {
          "internalType": "address",
          "name": "account",
          "type": "address"
        }
      ],
      "name": "balanceOf",
      "outputs": [
        {
          "internalType": "uint256",
          "name": "",
          "type": "uint256"
        }
      ],
      "stateMutability": "view",
      "type": "function"
    },
    {
      "inputs": [],
      "name": "blockOwner",
      "outputs": [
        {
          "internalType": "address",
          "name": "",
          "type": "address"
        }
      ],
      "stateMutability": "view",
      "type": "function"
    },
    {
      "inputs": [],
      "name": "decimals",
      "outputs": [
        {
          "internalType": "uint8",
          "name": "",
          "type": "uint8"
        }
      ],
      "stateMutability": "view",
      "type": "function"
    },
    {
      "inputs": [],
      "name": "name",
      "outputs": [
        {
          "internalType": "string",
          "name": "",
          "type": "string"
        }
      ],
      "stateMutability": "view",
      "type": "function"
    },
    {
      "inputs": [],
      "name": "restCredit",
      "outputs": [
        {
          "internalType": "uint256",
          "name": "",
          "type": "uint256"
        }
      ],
      "stateMutability": "view",
      "type": "function"
    },
    {
      "inputs": [],
      "name": "symbol",
      "outputs": [
        {
          "internalType": "string",
          "name": "",
          "type": "string"
        }
      ],
      "stateMutability": "view",
      "type": "function"
    },
    {
      "inputs": [
        {
          "internalType": "uint256",
          "name": "tokens",
          "type": "uint256"
        }
      ],
      "name": "toEther",
      "outputs": [],
      "stateMutability": "payable",
      "type": "function"
    },
    {
      "inputs": [],
      "name": "toToken",
      "outputs": [],
      "stateMutability": "payable",
      "type": "function"
    },
    {
      "inputs": [],
      "name": "totalSupply",
      "outputs": [
        {
          "internalType": "uint256",
          "name": "",
          "type": "uint256"
        }
      ],
      "stateMutability": "view",
      "type": "function"
    },
    {
      "inputs": [
        {
          "internalType": "address",
          "name": "to",
          "type": "address"
        },
        {
          "internalType": "uint256",
          "name": "value",
          "type": "uint256"
        }
      ],
      "name": "transfer",
      "outputs": [
        {
          "internalType": "bool",
          "name": "",
          "type": "bool"
        }
      ],
      "stateMutability": "nonpayable",
      "type": "function"
    },
    {
      "inputs": [
        {
          "internalType": "address",
          "name": "from",
          "type": "address"
        },
        {
          "internalType": "address",
          "name": "to",
          "type": "address"
        },
        {
          "internalType": "uint256",
          "name": "value",
          "type": "uint256"
        }
      ],
      "name": "transferFrom",
      "outputs": [
        {
          "internalType": "bool",
          "name": "",
          "type": "bool"
        }
      ],
      "stateMutability": "nonpayable",
      "type": "function"
    }
  ],
  "bytecode": "0x60806040523480156200001157600080fd5b506040518060400160405280600981526020017f53696d706c65414d4d00000000000000000000000000000000000000000000008152506040518060400160405280600381526020017f414d4d000000000000000000000000000000000000000000000000000000000081525081600390816200008f919062000365565b508060049081620000a1919062000365565b50505033600560006101000a81548173ffffffffffffffffffffffffffffffffffffffff021916908373ffffffffffffffffffffffffffffffffffffffff1602179055506200044c565b600081519050919050565b7f4e487b7100000000000000000000000000000000000000000000000000000000600052604160045260246000fd5b7f4e487b7100000000000000000000000000000000000000000000000000000000600052602260045260246000fd5b600060028204905060018216806200016d57607f821691505b60208210810362000183576200018262000125565b5b50919050565b60008190508160005260206000209050919050565b60006020601f8301049050919050565b600082821b905092915050565b600060088302620001ed7fffffffffffffffffffffffffffffffffffffffffffffffffffffffffffffffff82620001ae565b620001f98683620001ae565b95508019841693508086168417925050509392505050565b6000819050919050565b6000819050919050565b600062000246620002406200023a8462000211565b6200021b565b62000211565b9050919050565b6000819050919050565b620002628362000225565b6200027a62000271826200024d565b848454620001bb565b825550505050565b600090565b6200029162000282565b6200029e81848462000257565b505050565b5b81811015620002c657620002ba60008262000287565b600181019050620002a4565b5050565b601f8211156200031557620002df8162000189565b620002ea846200019e565b81016020851015620002fa578190505b6200031262000309856200019e565b830182620002a3565b50505b505050565b600082821c905092915050565b60006200033a600019846008026200031a565b1980831691505092915050565b600062000355838362000327565b9150826002028217905092915050565b6200037082620000eb565b67ffffffffffffffff8111156200038c576200038b620000f6565b5b62000398825462000154565b620003a5828285620002ca565b600060209050601f831160018114620003dd5760008415620003c8578287015190505b620003d4858262000347565b86555062000444565b601f198416620003ed8662000189565b60005b828110156200041757848901518255600182019150602085019450602081019050620003f0565b8683101562000437578489015162000433601f89168262000327565b8355505b6001600288020188555050505b505050505050565b611496806200045c6000396000f3fe6080604052600436106100c25760003560e01c80633c9305751161007f57806395bfca531161005957806395bfca531461025f57806395d89b411461027b578063a9059cbb146102a6578063dd62ed3e146102e3576100c2565b80633c930575146101ed57806370a08231146101f7578063947c089014610234576100c2565b806306fdde03146100c7578063095ea7b3146100f257806318160ddd1461012f57806323b872dd1461015a57806331133b8814610197578063313ce567146101c2575b600080fd5b3480156100d357600080fd5b506100dc610320565b6040516100e99190610e75565b60405180910390f35b3480156100fe57600080fd5b5061011960048036038101906101149190610f30565b6103b2565b6040516101269190610f8b565b60405180910390f35b34801561013b57600080fd5b506101446103d5565b6040516101519190610fb5565b60405180910390f35b34801561016657600080fd5b50610181600480360381019061017c9190610fd0565b6103df565b60405161018e9190610f8b565b60405180910390f35b3480156101a357600080fd5b506101ac61040e565b6040516101b99190611032565b60405180910390f35b3480156101ce57600080fd5b506101d7610434565b6040516101e49190611069565b60405180910390f35b6101f561043d565b005b34801561020357600080fd5b5061021e60048036038101906102199190611084565b61048c565b60405161022b9190610fb5565b60405180910390f35b34801561024057600080fd5b506102496104d4565b6040516102569190610fb5565b60405180910390f35b610279600480360381019061027491906110b1565b6104dc565b005b34801561028757600080fd5b50610290610607565b60405161029d9190610e75565b60405180910390f35b3480156102b257600080fd5b506102cd60048036038101906102c89190610f30565b610699565b6040516102da9190610f8b565b60405180910390f35b3480156102ef57600080fd5b5061030a600480360381019061030591906110de565b6106bc565b6040516103179190610fb5565b60405180910390f35b60606003805461032f9061114d565b80601f016020809104026020016040519081016040528092919081815260200182805461035b9061114d565b80156103a85780601f1061037d576101008083540402835291602001916103a8565b820191906000526020600020905b81548152906001019060200180831161038b57829003601f168201915b5050505050905090565b6000806103bd610743565b90506103ca81858561074b565b600191505092915050565b6000600254905090565b6000806103ea610743565b90506103f785828561075d565b6104028585856107f1565b60019150509392505050565b600560009054906101000a900473ffffffffffffffffffffffffffffffffffffffff1681565b60006012905090565b60003411610480576040517f08c379a0000000000000000000000000000000000000000000000000000000008152600401610477906111f0565b60405180910390fd5b61048a33346108e5565b565b60008060008373ffffffffffffffffffffffffffffffffffffffff1673ffffffffffffffffffffffffffffffffffffffff168152602001908152602001600020549050919050565b600047905090565b6000811161051f576040517f08c379a000000000000000000000000000000000000000000000000000000000815260040161051690611282565b60405180910390fd5b806105293361048c565b101561056a576040517f08c379a000000000000000000000000000000000000000000000000000000000815260040161056190611314565b60405180910390fd5b6000819050804710156105b2576040517f08c379a00000000000000000000000000000000000000000000000000000000081526004016105a9906113a6565b60405180910390fd5b6105bc3383610967565b3373ffffffffffffffffffffffffffffffffffffffff166108fc829081150290604051600060405180830381858888f19350505050158015610602573d6000803e3d6000fd5b505050565b6060600480546106169061114d565b80601f01602080910402602001604051908101604052809291908181526020018280546106429061114d565b801561068f5780601f106106645761010080835404028352916020019161068f565b820191906000526020600020905b81548152906001019060200180831161067257829003601f168201915b5050505050905090565b6000806106a4610743565b90506106b18185856107f1565b600191505092915050565b6000600160008473ffffffffffffffffffffffffffffffffffffffff1673ffffffffffffffffffffffffffffffffffffffff16815260200190815260200160002060008373ffffffffffffffffffffffffffffffffffffffff1673ffffffffffffffffffffffffffffffffffffffff16815260200190815260200160002054905092915050565b600033905090565b61075883838360016109e9565b505050565b600061076984846106bc565b90507fffffffffffffffffffffffffffffffffffffffffffffffffffffffffffffffff81146107eb57818110156107db578281836040517ffb8f41b20000000000000000000000000000000000000000000000000000000081526004016107d2939291906113c6565b60405180910390fd5b6107ea848484840360006109e9565b5b50505050565b600073ffffffffffffffffffffffffffffffffffffffff168373ffffffffffffffffffffffffffffffffffffffff16036108635760006040517f96c6fd1e00000000000000000000000000000000000000000000000000000000815260040161085a9190611032565b60405180910390fd5b600073ffffffffffffffffffffffffffffffffffffffff168273ffffffffffffffffffffffffffffffffffffffff16036108d55760006040517fec442f050000000000000000000000000000000000000000000000000000000081526004016108cc9190611032565b60405180910390fd5b6108e0838383610bc0565b505050565b600073ffffffffffffffffffffffffffffffffffffffff168273ffffffffffffffffffffffffffffffffffffffff16036109575760006040517fec442f0500000000000000000000000000000000000000000000000000000000815260040161094e9190611032565b60405180910390fd5b61096360008383610bc0565b5050565b600073ffffffffffffffffffffffffffffffffffffffff168273ffffffffffffffffffffffffffffffffffffffff16036109d95760006040517f96c6fd1e0000000000000000000000000000000000000000000000000000000081526004016109d09190611032565b60405180910390fd5b6109e582600083610bc0565b5050565b600073ffffffffffffffffffffffffffffffffffffffff168473ffffffffffffffffffffffffffffffffffffffff1603610a5b5760006040517fe602df05000000000000000000000000000000000000000000000000000000008152600401610a529190611032565b60405180910390fd5b600073ffffffffffffffffffffffffffffffffffffffff168373ffffffffffffffffffffffffffffffffffffffff1603610acd5760006040517f94280d62000000000000000000000000000000000000000000000000000000008152600401610ac49190611032565b60405180910390fd5b81600160008673ffffffffffffffffffffffffffffffffffffffff1673ffffffffffffffffffffffffffffffffffffffff16815260200190815260200160002060008573ffffffffffffffffffffffffffffffffffffffff1673ffffffffffffffffffffffffffffffffffffffff168152602001908152602001600020819055508015610bba578273ffffffffffffffffffffffffffffffffffffffff168473ffffffffffffffffffffffffffffffffffffffff167f8c5be1e5ebec7d5bd14f71427d1e84f3dd0314c0f7b2291e5b200ac8c7c3b92584604051610bb19190610fb5565b60405180910390a35b50505050565b600073ffffffffffffffffffffffffffffffffffffffff168373ffffffffffffffffffffffffffffffffffffffff1603610c12578060026000828254610c06919061142c565b92505081905550610ce5565b60008060008573ffffffffffffffffffffffffffffffffffffffff1673ffffffffffffffffffffffffffffffffffffffff16815260200190815260200160002054905081811015610c9e578381836040517fe450d38c000000000000000000000000000000000000000000000000000000008152600401610c95939291906113c6565b60405180910390fd5b8181036000808673ffffffffffffffffffffffffffffffffffffffff1673ffffffffffffffffffffffffffffffffffffffff16815260200190815260200160002081905550505b600073ffffffffffffffffffffffffffffffffffffffff168273ffffffffffffffffffffffffffffffffffffffff1603610d2e5780600260008282540392505081905550610d7b565b806000808473ffffffffffffffffffffffffffffffffffffffff1673ffffffffffffffffffffffffffffffffffffffff168152602001908152602001600020600082825401925050819055505b8173ffffffffffffffffffffffffffffffffffffffff168373ffffffffffffffffffffffffffffffffffffffff167fddf252ad1be2c89b69c2b068fc378daa952ba7f163c4a11628f55a4df523b3ef83604051610dd89190610fb5565b60405180910390a3505050565b600081519050919050565b600082825260208201905092915050565b60005b83811015610e1f578082015181840152602081019050610e04565b60008484015250505050565b6000601f19601f8301169050919050565b6000610e4782610de5565b610e518185610df0565b9350610e61818560208601610e01565b610e6a81610e2b565b840191505092915050565b60006020820190508181036000830152610e8f8184610e3c565b905092915050565b600080fd5b600073ffffffffffffffffffffffffffffffffffffffff82169050919050565b6000610ec782610e9c565b9050919050565b610ed781610ebc565b8114610ee257600080fd5b50565b600081359050610ef481610ece565b92915050565b6000819050919050565b610f0d81610efa565b8114610f1857600080fd5b50565b600081359050610f2a81610f04565b92915050565b60008060408385031215610f4757610f46610e97565b5b6000610f5585828601610ee5565b9250506020610f6685828601610f1b565b9150509250929050565b60008115159050919050565b610f8581610f70565b82525050565b6000602082019050610fa06000830184610f7c565b92915050565b610faf81610efa565b82525050565b6000602082019050610fca6000830184610fa6565b92915050565b600080600060608486031215610fe957610fe8610e97565b5b6000610ff786828701610ee5565b935050602061100886828701610ee5565b925050604061101986828701610f1b565b9150509250925092565b61102c81610ebc565b82525050565b60006020820190506110476000830184611023565b92915050565b600060ff82169050919050565b6110638161104d565b82525050565b600060208201905061107e600083018461105a565b92915050565b60006020828403121561109a57611099610e97565b5b60006110a884828501610ee5565b91505092915050565b6000602082840312156110c7576110c6610e97565b5b60006110d584828501610f1b565b91505092915050565b600080604083850312156110f5576110f4610e97565b5b600061110385828601610ee5565b925050602061111485828601610ee5565b9150509250929050565b7f4e487b7100000000000000000000000000000000000000000000000000000000600052602260045260246000fd5b6000600282049050600182168061116557607f821691505b6020821081036111785761117761111e565b5b50919050565b7f6574686572207472616e73666f726d696e6720746f20746f6b656e206e65656460008201527f73206574686572203e2030000000000000000000000000000000000000000000602082015250565b60006111da602b83610df0565b91506111e58261117e565b604082019050919050565b60006020820190508181036000830152611209816111cd565b9050919050565b7f746f6b656e207472616e73666f726d696e6720746f206574686572206e65656460008201527f7320746f6b656e203e2030000000000000000000000000000000000000000000602082015250565b600061126c602b83610df0565b915061127782611210565b604082019050919050565b6000602082019050818103600083015261129b8161125f565b9050919050565b7f746f6b656e207472616e73666f726d696e67206e6565647320656e6f7567682060008201527f746f6b656e730000000000000000000000000000000000000000000000000000602082015250565b60006112fe602683610df0565b9150611309826112a2565b604082019050919050565b6000602082019050818103600083015261132d816112f1565b9050919050565b7f7472616e73666f726d696e67206e65656473206d6f726520657468657273206960008201527f6e2062616e6b0000000000000000000000000000000000000000000000000000602082015250565b6000611390602683610df0565b915061139b82611334565b604082019050919050565b600060208201905081810360008301526113bf81611383565b9050919050565b60006060820190506113db6000830186611023565b6113e86020830185610fa6565b6113f56040830184610fa6565b949350505050565b7f4e487b7100000000000000000000000000000000000000000000000000000000600052601160045260246000fd5b600061143782610efa565b915061144283610efa565b925082820190508082111561145a576114596113fd565b5b9291505056fea26469706673582212208de6eac8e1c1a3c2ab90ac48c1378423de09802ef036fb53ae8461c30e7d423064736f6c63430008140033",
  "linkReferences": {},
  "deployedLinkReferences": {}
}